:04000000C4EF3FF01A
:107F8800056A0001DDEF3FF00F0EC16E000E946E22
:107F9800000E926E93808B841F0E026E710E016E1E
:107FA8001E0EE82EFED7012EFCD7022EFAD700D0DF
:107FB8001200C8EC3FF081A0E4EF3FF0E6EF3FF09D
:107FC800DFEF3FF0050E0560ECEF3FF0EEEF3FF01E
:107FD800DFEF3FF0052A05C089FF3D0E046EE10E74
:107FE800036E400EE82EFED7032EFCD7042EFAD7D8
:087FF800DFEF3FF000EF00F0A5
:020000040020DA
:08000000FFFFFFFFFFFFFFFF00
:020000040030CA
:0E000000040E181EFF0381FF0FC00FE00F401B
:00000001FF
